:020000040800F2
:100000004806002025340008793200087B320008B9
:100010007D3200087F3200088132000800000000B5
:100020000000000000000000000000008332000813
:10003000853200080000000087320008893200087D
:10004000A1340008A5340008A9340008AD34000824
:10005000B1340008B5340008B9340008BD340008D4
:10006000C1340008C5340008C934000891320008C2
:10007000CD340008D1340008D5340008D934000844
:10008000DD340008E1340008E5340008E9340008F4
:10009000ED340008F1340008F53400089B32000804
:1000A000F9340008A7320008FD34000801350008C3
:1000B00005350008093500080D3500081135000820
:1000C00015350008193500081D35000821350008D0
:1000D00025350008293500082D3500083135000880
:1000E00035350008393500083D35000810B50400E5
:1000F000002C01D101202FE094F83D00002805D10B
:10010000002084F83C00200000F01FFC022084F84E
:100110003D00211D206800F042FA012084F84600CD
:10012000012084F83E00012084F83F00012084F87B
:100130004000012084F84100012084F842000120A1
:1001400084F84300012084F84400012084F845002D
:10015000012084F83D00002010BD010091F83D0011
:10016000012801D0012030E0022081F83D0008681C
:10017000C06850F001000B68D8600868DFF8BC3038
:1001800098420DD00868B0F1804F09D00868DFF8B8
:10019000B030984204D00868DFF8A83098420DD1FA
:1001A0000868806810F007000200062A0CD0086872
:1001B000006850F001000B68186005E008680068EE
:1001C00050F001000B6818600020704710B5040063
:1001D000002C01D101202FE094F83D00002805D12A
:1001E000002084F83C00200000F0C8FB022084F8C6
:1001F0003D00211D206800F0D2F9012084F846005E
:10020000012084F83E00012084F83F00012084F89A
:100210004000012084F84100012084F842000120C0
:1002200084F84300012084F84400012084F845004C
:10023000012084F83D00002010BD0000002C01408A
:10024000000400400008004010B504002068006968
:1002500080071AD52068C068800716D57FF0020095
:1002600021680861012020772068806910F0030F61
:1002700003D0200000F034FC05E0200000F031FC49
:10028000200000F02FFC0020207720680069400744
:100290001AD52068C068400716D57FF00400216891
:1002A0000861022020772068806910F4407F03D025
:1002B000200000F015FC05E0200000F012FC2000FA
:1002C00000F010FC002020772068006900071AD594
:1002D0002068C068000716D57FF008002168086113
:1002E000042020772068C06910F0030F03D020009D
:1002F00000F0F6FB05E0200000F0F3FB200000F02A
:10030000F1FB0020207720680069C0061AD520681C
:10031000C068C00616D57FF010002168086108206B
:1003200020772068C06910F4407F03D0200000F0DF
:10033000D7FB05E0200000F0D4FB200000F0D2FB4A
:100340000020207720680069C0070AD52068C068AF
:10035000C00706D57FF0010021680861200000F089
:10036000C2FB2068006900060AD52068C068000644
:1003700006D57FF0800021680861200000F0B4FB02
:100380002068006940060AD52068C068400606D586
:100390007FF0400021680861200000F0A6FB206883
:1003A000006980060AD52068C068800606D57FF0FF
:1003B000200021680861200000F098FB10BD70B596
:1003C00004000D00160094F83C00012801D1022021
:1003D0006EE0012084F83C003000002806D004289C
:1003E0001BD0082831D00C2846D05DE029002068B9
:1003F00000F007F92068806950F0080021688861E2
:100400002068806930F00400216888612068816973
:10041000286901432068816146E02900206800F0D6
:100420001CF92068806950F40060216888612068A8
:10043000806930F48060216888612068806929695A
:1004400050EA0120216888612EE02900206800F030
:1004500035F92068C06950F008002168C86120683B
:10046000C06930F004002168C8612068C16928694A
:1004700001432068C16117E02900206800F04EF9AF
:100480002068C06950F400602168C8612068C069B4
:1004900030F480602168C8612068C069296950EA29
:1004A00001202168C861FFE7002084F83C0000209B
:1004B00070BD70B504000D0094F83C00012801D116
:1004C00002206BE0012084F83C00022084F83D000B
:1004D0002068866836F0770636F47F4620688660A6
:1004E000286800284ED010284CD020284AD0302828
:1004F00048D040283CD0502826D060282ED07028E4
:1005000007D0B0F5805F03D0B0F5005F0FD03EE0BC
:100510003DE0EB686A68A968206800F056F9206839
:10052000806850F077000600206886602FE0EB6856
:100530006A68A968206800F048F92068806850F46B
:1005400080402168886022E0EA686968206800F0DD
:100550000FF95021206800F030F918E0EA68696866
:10056000206800F017F96021206800F026F90EE0FD
:10057000EA686968206800F0FBF84021206800F014
:100580001CF904E02968206800F017F9FFE7012052
:1005900084F83D00002084F83C00002070BD10B4B9
:1005A0000368704CA04208D0B0F1804F05D06E4A6D
:1005B000904202D06D4A904203D133F070034A68F2
:1005C0001343A04208D0B0F1804F05D0664A904254
:1005D00002D0664A904203D133F44073CA68134391
:1005E00033F080034A69134303608A68C2620A6871
:1005F0008262A04201D10A6902630122426110BCF9
:10060000704770B4026A520852000262046A456878
:10061000836933F070039B089B000A68134334F02E
:1006200002048A6814434F4EB04205D134F00804E6
:10063000CA68144334F00404B04207D135F480751D
:1006400035F400754A6915438A691543456083612D
:100650004A684263046270BC704770B4026A32F048
:1006600010020262036A4468826932F4E04232F4A2
:1006700040720D6852EA052233F020038D6853EA78
:100680000513384DA84206D133F08003CE6853EAF3
:10069000061333F04003A84209D134F4806434F4E3
:1006A00000644D6954EA85048D6954EA8504446008
:1006B00082614D688563036270BC704770B4026AE2
:1006C00032F480720262046A4568C36933F07003D1
:1006D0009B089B000A68134334F400748A6854EA48
:1006E0000224204A904206D134F40064CE6854EAD1
:1006F000062434F48064904209D135F4805535F4F1
:1007000000554A6955EA02158A6955EA021545609D
:10071000C3614A68C263046270BC704730B4026A45
:1007200032F480520262036A4468C26932F4E042E1
:1007300032F440720D6852EA052233F400538D689A
:1007400053EA0533074DA84204D134F480444D697F
:1007500054EA85144460C2614D680564036230BC8C
:1007600070470000002C01400004004000080040D9
:1007700010B4046A036A5B085B000362836933F0A8
:10078000F00353EA021334F00A040C438361046259
:1007900010BC704710B4036A33F01003036283691E
:1007A000046A33F4704353EA023334F0A00454EA89
:1007B00001148361046210BC7047836833F07003D6
:1007C00051F0070213438360704730B4846834F4F7
:1007D0007F4452EA010555EA03252C43846030BC6E
:1007E000704730B4002513E050F8042BD30744BF02
:1007F000A9F101039A18091F042942F8045BFAD2EF
:1008000013468C0744BF15809B1CC90748BF1D7049
:1008100050F8041B0029E7D130BC704781B0A448D0
:10082000016851F001010160006810F001000090C2
:100830000098A048016851F080510160006810F0F4
:100840008050009000989C49086830F0E06050F0BB
:100850000070086001B0704730B585B0040001A891
:10086000102100F045F920689449884236D190481B
:10087000016851F400710160016811F40071009188
:100880000099016851F004010160006810F0040053
:1008900000900098012001900320029001A988484F
:1008A00000F02AF9874D8848286000206860002001
:1008B000A8608020E8604FF4807028614FF4806069
:1008C00068610020A8610020E861280000F072FA49
:1008D000002801D000F0B2FD25626C6205B030BD89
:1008E00030B585B004006846102100F001F9206899
:1008F0007649884227D16E48016851F480510160E1
:10090000016811F4805104910499016851F00401C7
:100910000160006810F0040004900498A02000908A
:100920000220019003200390654D6946280000F0E5
:10093000E3F84020009000200190002002906946DA
:10094000280000F0D9F805B030BD1CB504002068BF
:100950005F49884211D15648016851F40061016035
:10096000006810F400600090009800220021192017
:1009700000F0DDFD192000F0EFFD13BD81B001682E
:10098000B1F1804F0AD14B490A6852F001020A6066
:10099000096811F00101009100990DE001684D4ACC
:1009A000914209D143490A6852F002020A6009687B
:1009B00011F002010091009901B0704718B585B09F
:1009C00004006846102100F093F82068B0F1804FD1
:1009D00014D13748016851F004010160006810F03B
:1009E0000400049004980C20009002200190022042
:1009F00003906946324800F07FF820E020683549CE
:100A000088421CD12A48016851F008010160006841
:100A100010F008000490049810200090022001902B
:100A20000220039069462C4800F066F822490868C5
:100A300030F4406050F0E06050F40060086006B0B0
:100A400010BD30B585B004006846102100F050F8A4
:100A500020682249884229D11548016851F4804113
:100A60000160016811F4804104910499016851F01A
:100A700004010160006810F00400049004984FF431
:100A80000070009002200190032003900C4D6946F5
:100A9000280000F031F84FF48060009000200190B1
:100AA000002002906946280000F026F805B030BD0D
:100AB000181002401C1002400400014000240140B4
:100AC000000801403C0100200800024000300140C5
:100AD000002C014000040040000C0140003801409F
:100AE0007047704770477047704770477047010202
:100AF000002200F04FBD00002DE9F84703005FF031
:100B0000000E5FF00008086830FA0EF0002800F0D0
:100B10000081012010FA0EF0040008682040050052
:100B2000A54240F0F3804868002831D0012820D049
:100B3000022825D003283CD011281DD0122823D00C
:100B4000DFF828C2604523D0DFF824C260451FD0FB
:100B5000DFF820C260451BD0DFF81CC2604517D00B
:100B6000DFF818C2604513D0DFF814C260450FD01B
:100B700022E0C86880461FE0C868001D80461BE070
:100B8000C8680830804617E0C8680C30804613E01B
:100B90008868002802D10420804609E0886801287E
:100BA00003D1082080461C6102E0082080465C6179
:100BB00002E000208046FFE7B5F5807F01D21E00ED
:100BC00000E01E1DB5F5807F02D25FEA8E0702E0CD
:100BD000BEF10807BF005FF00F09D6F800C019FA90
:100BE00007F03CEA000C18FA07F050EA0C0CC6F8C3
:100BF00000C04868C00040F189806248D0F800C059
:100C00005CF0010CC0F800C0006810F0010000901A
:100C10000098DFF874C1704680085CF820A01EF0D0
:100C20000300C0B2800019FA00F93AEA090A5748ED
:100C3000834202D15FF0000913E05548834202D19C
:100C40005FF001090DE05348834202D15FF00209D1
:100C500007E05148834202D15FF0030901E05FF0F1
:100C600004091EF00300C0B2800019FA00F95246D0
:100C700059EA0202704680084CF820204868C003F8
:100C800007D54648D0F800C055EA0C0CC0F800C0A3
:100C900006E04248D0F800C03CEA050CC0F800C0AD
:100CA0004868800307D53E48D0F800C055EA0C0CD0
:100CB000C0F800C006E03A48D0F800C03CEA050C95
:100CC000C0F800C04868C00207D53648D0F800C058
:100CD00055EA0C0CC0F800C006E03248D0F800C05D
:100CE0003CEA050CC0F800C04868800207D52E48D1
:100CF000D0F800C055EA0C0CC0F800C006E02A4845
:100D0000D0F800C03CEA050CC0F800C01EF1010E8E
:100D1000F9E6BDE8F1871300DBB2002B03D00B002E
:100D20009BB2036103E00B009BB21B04036170479D
:100D300010B4C2680B009BB213400C00A4B29443E1
:100D400054EA0344046110BC704710B5040017480E
:100D50000168220092B2114206D0210089B20160DE
:100D6000200080B200F024F810BD00000000111037
:100D700000001210000021100000221000003110AD
:100D80000000321018100240080001400008014025
:100D9000000C01400010014000140140000401401B
:100DA00004040140080401400C0401401404014003
:100DB0007047000010B401000022002901D1012079
:100DC0002BE00B68DFF8C001C3181420B3FBF0F070
:100DD00080000864DFF8B401C863022081F82100B4
:100DE000086803686FF30D134C6888680443C8688B
:100DF0000443086904434869044388690443C86993
:100E0000044323430868036000208863012081F8BD
:100E10002100002081F82000002010BC704770B530
:100E20000400E06B0568206806680421206C81409E
:100E30000D423ED070073CD520680068800605D47E
:100E40002068006830F0040021680860206850497C
:100E5000884201D1042023E020684E49884201D114
:100E600040201DE020684C49884202D14FF4806048
:100E700016E020684949884202D14FF480400FE0D3
:100E800020684749884202D15FF4802008E020684A
:100E90004449884202D15FF4800001E05FF0806045
:100EA00041490860E06A00286DD02000E16A884767
:100EB00069E00221206C81400D4244D0B00742D548
:100EC00020680068800608D42068006830F00A00B6
:100ED00021680860012084F8210020682C4988429C
:100EE00001D1022023E020682A49884201D1202034
:100EF0001DE020682849884202D14FF4007016E0B6
:100F000020682649884202D14FF400500FE0206843
:100F10002349884202D15FF4003008E0206821496B
:100F2000884202D15FF4001001E05FF000701E49BA
:100F30000860002084F82000A06A002823D0200048
:100F4000A16A88471FE00821206C81400D421AD019
:100F5000300718D52068006830F00E00216808605E
:100F60000121206C8140E06B41600120A0630120E1
:100F700084F82100002084F82000206B002802D093
:100F80002000216B884770BDF8FFFDBF00000240C4
:100F9000080002401C0002403000024044000240B1
:100FA000580002406C0002400400024080B500F08E
:100FB0000BFB00F015F800F09DF900F087F900F048
:100FC00081F800F0A2F800F050F800F0D9F800F035
:100FD00022F900F061F900F01FFB00F079FBFCE75B
:100FE00000B593B009A82821FFF782FD68461421B7
:100FF000FFF77EFD05A81021FFF77AFD012009907B
:101000005FF480300A9000210B9101210D910221A3
:10101000109111905FF4E010129009A800F004FD07
:10102000002801D000F00AFA0F2000900220019061
:10103000002002904FF48060039000200490022171
:10104000684600F0F1FE002801D000F0F7F9022018
:1010500005904FF40040079005A801F015F800280E
:1010600001D000F0EBF913B000BD1FB568460021B8
:101070000022002380E80E00DC4CDD4820600020C8
:10108000A06000202073002020755FF46020E061E4
:101090000020606001202061200001F08BF8002812
:1010A00001D000F0CBF90020009001200190002039
:1010B00002906946200001F01FF9002801D000F0DD
:1010C000BDF91FBD80B5CB48CB4901604FF482719B
:1010D0004160002181600021C16000210161002187
:1010E00041614FF4007181611821C16100210162E9
:1010F00000214162002181620A21C16201F0D6F91A
:10110000002801D000F09AF901BD10B586B002A800
:101110001021FFF7EDFCB948D0E90023CDE9002309
:10112000B74CB848206041F61F4060600020A060C6
:101130000920E06000202061002060610020A061A3
:101140002000FEF7D3FF002801D000F077F94FF41C
:101150008050029002A92000FFF7ABF9002801D0CF
:1011600000F06CF9002000900020019069462000FA
:1011700001F0A0FB002801D000F060F906B010BD1E
:1011800018B589B0A048D0E90023CDE9002302A812
:101190001C21FFF7ADFC9D4C5FF080402060482093
:1011A00060600020A0601420E0600020206100202A
:1011B000A0612000FFF70AF8002801D000F03EF9F6
:1011C00000200090002001906946200001F072FB91
:1011D000002801D000F032F9602002900020039036
:1011E0000020049000200690082202A92000FFF7AA
:1011F000E6F8002801D000F021F90C2202A9200015
:10120000FFF7DDF8002801D000F018F92000FFF703
:10121000D5FB0AB010BD18B589B07D48D0E90023D0
:10122000CDE9002302A81C21FFF762FC794C7A4823
:101230002060482060600020A0601420E060002052
:1012400020610020A0612000FEF7C0FF002801D02F
:1012500000F0F4F800200090002001906946200082
:1012600001F028FB002801D000F0E8F8602002908F
:10127000002003900020049000200690002202A984
:101280002000FFF79CF8002801D000F0D7F82000DC
:10129000FFF794FB0AB010BD80B56048604901605B
:1012A0005FF4E1314160002181600021C1600021D3
:1012B00001610C214161002181610021C16101F0C6
:1012C00037FB002801D000F0B9F801BD80B55548C2
:1012D000016851F001010160006810F00100009008
:1012E0000098002200210B2000F021F90B2000F0D3
:1012F00033F901BDF0B585B068461021FFF7F8FB62
:101300004948016851F010010160016811F01001B5
:1013100004910499016851F020010160016811F005
:10132000200104910499016851F0040101600168F1
:1013300011F0040104910499016851F00801016061
:10134000006810F0080004900498384F00224FF411
:1013500000513800FFF7DFFC47F20306344C00224F
:1013600031002000FFF7D7FC324D00224FF4C0516E
:101370002800FFF7D0FC4FF40050009001200190AE
:10138000002002900220039069463800FFF7B4FB6A
:1013900000960120019000200290022003906946EF
:1013A0002000FFF7A9FB4FF4C050009001200190EE
:1013B000002002900220039069462800FFF79CFB62
:1013C0004FF4007000901C48019002200290694682
:1013D0002000FFF791FB00220021172000F0A7F862
:1013E000172000F0B9F805B0F0BD0000C0010020E2
:1013F000002401400C00002000300140643400084B
:1014000064000020002C01406C340008AC00002077
:1014100074340008F4000020000400408001002023
:101420000038014014100240181002400010014022
:10143000000C01400008014000001110704700003E
:1014400010B410F007034B4C22684FF6FF010A401E
:10145000494951EA03210A43226010BC70474548BC
:101460000068C0F302207047010049B2002909D486
:10147000012210F01F018A40404903005BB25B0962
:1014800041F82320704710B4020052B2002A05D45C
:101490000A013B4B040064B21A5508E00A01394BBB
:1014A000040064B214F00F04234403F8042C10BCAD
:1014B000704770B4030013F00704D4F10700052847
:1014C00001D3042001E0D4F10700251D072D01D22E
:1014D000002500E0E51E012616FA00F0401E01403E
:1014E000A94016FA05F56D1E2A401143080070BC8C
:1014F000704710B50400601EB0F1807F01D3012059
:101500000EE0601E204908600F215FF0FF30FFF7FA
:10151000BAFF00201D49086007201D49086000200F
:1015200010BD10B504002000FFF78AFF10BD2DE9A3
:10153000F04104000D0016000027FFF790FF8046E1
:10154000320029004046FFF7B4FF0100200040B2FE
:10155000FFF799FFBDE8F08110B50400200040B20C
:10156000FFF782FF10BD10B504002000FFF7C1FF98
:1015700010BD00000CED00E00000FA0500E100E005
:1015800000E400E018ED00E014E000E018E000E006
:1015900010E000E000B500BF1300964694461039F5
:1015A00028BFA0E80C50FAD85FEA417C28BF0CC0E5
:1015B00048BF40F8042BC90728BF20F8022B48BFBA
:1015C00000F8012B00BD000080B50748016851F00C
:1015D000100101600320FFF7A4FF002001F0F6FADC
:1015E000FFF71CF9002002BD0020024080B5002258
:1015F0000121DFF8D403FFF78EFB01BD80B5012286
:101600000121DFF8C403FFF786FB01BD10B504001C
:10161000200001F001FB10BD38B500244FF4967096
:1016200001F0FAFADFF8A4534FF400522900002029
:1016300000F00DF9DFF89803FEF78FFD642001F04C
:10164000EBFAFFF7D3FF002C12D101F0D6FB0028F4
:1016500001D001200400DFF87C0301F045FD4FF4C8
:1016600000512800FFF764FB3220FFF7CFFFEAE7C5
:10167000DFF8640301F038FD01F075FBFF2001F095
:101680009CFC732001F011FC202001F053FC0C2085
:1016900001F0FAFB032001F010FCDFF840130120F9
:1016A00001F013FC0C220021012001F052FC01206A
:1016B00001F0D9FB022001F0C1FBFFF79FFF0C20D6
:1016C000DFF81C1308704FF4FA7001F0A5FA31BD71
:1016D00038B500F0D2F800F01CF9DFF808432078A4
:1016E000C0F38010C0B200280ED0DFF8FC120878DA
:1016F000002809D000200870BC48B0F90210C94386
:1017000011F00101418002E00120B84948802078B1
:10171000C0F30010C0B200280DD0B54800780028F2
:1017200009D0B24800218180B0F90410C94311F0FA
:101730000101818002E00120AC4988802078C0F35B
:101740004010C0B2002805D0A848012141810121E4
:10175000818104E0A54800214181002181816078D8
:10176000C0F38000C0B2002802D00120A149087057
:10177000A0480078002805D09C480089C0B200F03D
:10178000F8F802E0002099490881607810F0010023
:10179000002802D001209849087097480078002856
:1017A00005D09248C088C0B200F0E3F802E0002003
:1017B0008E49C88091480168C92904D3002101607D
:1017C00000208F4908708E480078002808D14FF417
:1017D00000517E48FFF7ACFA3220FFF717FF01E017
:1017E00000F0D3F8814C4FF4005278492088C0B201
:1017F00000F02DF8744D4FF4805229006088C0B27B
:1018000000F025F84FF400522900A088C0B200F083
:101810001EF84FF480422900E088C0B200F017F8AB
:101820004FF4004229002089C0B200F010F8754D35
:101830004FF4006229006089C0B200F008F84FF44C
:1018400080522900A089C0B200F001F831BD70B506
:1018500004000D0016002000C0B2012806D10022AD
:10186000310089B22800FFF756FA05E00122310065
:1018700089B22800FFF74FFA70BD70B501F0B5FBD3
:1018800001281DD0604D614C554E3100200001F003
:1018900019FC287001F0BCFB5D4801F025FC28789C
:1018A00001F05DFC5B4801F01FFC317889B220003B
:1018B00001F027FC43A001F017FC012050490870FB
:1018C0004849524802780A7042784A7082788A7091
:1018D000C278CA70504902790A800A88437952EA6C
:1018E00003220A8082794A804A88C37952EA032215
:1018F0004A804A49027A0A800A88437A52EA0322D5
:101900000A80827A4A804A88C07A52EA00224A8053
:1019100070BD38B5404CB4F9000001280ADB2A4DEF
:10192000002208212800FFF7F6F9012210212800E3
:10193000FFF7F1F9B4F9000000280AD5224D002282
:1019400010212800FFF7E7F9012208212800FFF7FE
:10195000E2F9B4F9000000280AD11B4C002208214A
:101960002000FFF7D8F9002210212000FFF7D3F95B
:1019700031BD2B490A6840F2E9339A4204D3002270
:101980000A60C04310F00100704740F6B9302549A5
:101990000A68824214D30A68824207D3086840F674
:1019A000C232904202D20120104A1080086840F6EC
:1019B0001D42904204D30020086000200B4908809B
:1019C000704700003C0D0A00000C0140001001406F
:1019D00064000020C0330008D83300089C3400089D
:1019E00044020020200200200800002010020020F5
:1019F00009000020420200204102002034020020A1
:101A0000400200200008014043020020F0010020B5
:101A1000343400084034000824020020280200204A
:101A20003C020020380200202DE9FC470400002C75
:101A300001D10120F6E12078C0076BD5DFF804065C
:101A4000016811F00C01042907D0016811F00C01A4
:101A500008290CD10068C00309D5DFF8E405006847
:101A6000800357D56068002854D10120DAE160680E
:101A7000B0F5803F06D1DFF8C805016851F4803128
:101A8000016026E0606800280AD1DFF8B40501682B
:101A900031F480310160016831F48021016018E087
:101AA0006068B0F5A02F0AD1DFF89405016851F401
:101AB00080210160016851F48031016009E0DFF8A4
:101AC0008005016831F480310160016831F48021C2
:101AD0000160606800280ED001F068FB0500DFF8A7
:101AE00060050068800315D401F060FB401B652889
:101AF000F5D3032096E101F059FB0500DFF840051E
:101B00000068800306D501F051FB401B6528F5D322
:101B1000032087E12078800750D5DFF82805016889
:101B200011F00C0F07D0016811F00C01082914D135
:101B30000068C00311D4DFF808050168890704D5DF
:101B40002169012901D001206CE1016831F0F8011F
:101B5000626951EAC201016030E0206900281AD0B0
:101B60000120DFF8F414086001F020FB0500DFF825
:101B7000D0040168890706D401F018FB401B032834
:101B8000F5D303204EE1016831F0F801626951EAB2
:101B9000C201016012E00020DFF8BC14086001F00F
:101BA00005FB0500DFF898040068800706D501F002
:101BB000FDFA401B0328F5D3032033E1207800070A
:101BC0002CD5A069002816D00120DFF890140860F9
:101BD00001F0ECFA0500DFF87C040068800706D409
:101BE00001F0E4FA401B0328F5D303201AE1012099
:101BF00000F012FA12E00020DFF86014086001F033
:101C0000D5FA0500DFF84C040068800706D501F01E
:101C1000CDFA401B0328F5D3032003E120784007C9
:101C200040F18E800027DFF83884D8F80000C0002B
:101C30000DD4D8F8000050F08050C8F80000D8F853
:101C4000000010F080500090009801200700DFF89D
:101C50001494D9F80000C00513D4D9F8000050F44A
:101C60008070C9F8000001F0A1FA0500D9F8000061
:101C7000C00506D401F09AFA401B6528F6D303206C
:101C8000D0E0E068012806D1DFF8DC03016851F0FC
:101C90000101016025E0E06800280AD1DFF8C803EF
:101CA0000168490849000160016831F004010160E0
:101CB00017E0E06805280AD1DFF8AC03016851F0AD
:101CC00004010160016851F00101016009E0DFF8E1
:101CD00098030168490849000160016831F0040176
:101CE0000160E068002810D001F060FA0500DFF81C
:101CF00078030068800719D401F058FA401B41F2BC
:101D000089318842F3D303208CE001F04FFA0500BB
:101D1000DFF854030068800708D501F047FA401B3C
:101D200041F289318842F3D303207BE03800C0B20E
:101D3000012805D1D8F8000030F08050C8F8000024
:101D4000E06900286DD0DFF8FC82D8F8000010F0C0
:101D50000C00082851D0E06902283BD1DFF80CA321
:101D60000020CAF8000001F021FA0700DFF8D09245
:101D7000D9F80000800106D501F018FAC01B03282D
:101D8000F4D303204EE0206AB0F5803F07D1D8F8A5
:101D9000001031F40031A0680143C8F80010D8F8F1
:101DA000001031F47411206A0143606A0143C8F8DD
:101DB00000100120CAF8000001F0F8F90500D9F878
:101DC000000080012DD401F0F1F9401B0328F6D367
:101DD000032027E00020DFF89412086001F0E6F904
:101DE0000500DFF85C02006880011AD501F0DEF919
:101DF000401B0328F5D3032014E0E069012801D13A
:101E000001200FE0D8F80000060016F48030216AA7
:101E1000884204D116F47010616A884201D0012012
:101E200000E00020BDE8F6872DE9F04104000D0038
:101E3000002C01D101209CE0DFF83472386810F0EA
:101E40000700A8420BD23868C008C0002843386099
:101E5000386810F00700A84201D0012089E02078FE
:101E6000800717D52078400705D5DFF8D80101682D
:101E700051F4E06101602078000704D571480168E1
:101E800051F4605101606F490A6832F0F002A068B5
:101E900002430A602078C00735D56068012805D163
:101EA00067480068800310D4012062E0606802285F
:101EB00005D163480068800107D4012059E06048DB
:101EC0000068800701D4012053E0DFF87881D8F85A
:101ED00000108908890060680143C8F8001001F00B
:101EE00065F90600D8F8000010F00C006168B0EB4E
:101EF000810F08D001F05AF9801B41F289318842E4
:101F0000F0D3032035E0386810F0070085420BD28B
:101F10003868C008C00028433860386810F00700EF
:101F2000A84201D0012024E02078400706D5454989
:101F30000A6832F4E062E06802430A602078000731
:101F400007D54048016831F46051226951EAC20165
:101F5000016000F010F847493A4A1268C2F30312D0
:101F6000895CC840394908603948006800F02EFE95
:101F70000020BDE8F081F0B585B001A83E491022EF
:101F800001F01AF93D480088ADF80000002000215A
:101F90000022002300252B4E346814F00C07042F78
:101FA00002D0082F02D01BE027481AE001A8C4F392
:101FB0008347C05D0300E0030CD568463668C6F36E
:101FC0004046805D0100204800FB03F0B0FBF1F0CB
:101FD000020003E02A4800FB03F00200100000E0CA
:101FE000194805B0F0BD19480068704780B5FFF783
:101FF000FAFF2449134A1268C2F30222895CC840DE
:1020000002BD80B5FFF7EFFF1E490E4A1268C2F30A
:10201000C222895CC84002BD81B00C490968C90868
:102020004FF47A72B1FBF2F101FB00F1009100BFB5
:1020300000994A1E00920029F9D101B070470000B2
:10204000001002400410024000127A000400002038
:10205000000000202410024000004242800442425E
:102060001C100240007000402010024060004242FC
:10207000002002401434000804340008EE0A00086E
:1020800000093D00943400082DE9F84305000026BE
:1020900000242878C0076CD50027DFF80481D8F821
:1020A0000000C0000DD4D8F8000050F08050C8F8EF
:1020B0000000D8F8000010F0805000900098012037
:1020C0000700DFF8E090D9F80000C00513D4D9F874
:1020D000000050F48070C9F8000001F067F80600B5
:1020E000D9F80000C00506D401F060F8801B65280F
:1020F000F6D3032052E0DFF8B090D9F8000010F4D6
:1021000040700400002C22D0686810F440708442B3
:102110001DD0D9F8000030F440700400234801219C
:10212000016000210160C9F80040E0070FD501F00F
:102130003DF80600D9F80000800708D401F036F811
:10214000801B41F289318842F4D3032026E0D9F87C
:10215000001031F4407168680143C9F8001038007C
:10216000C0B2012805D1D8F8000030F08050C8F87E
:1021700000002878800706D50D490A6832F44042ED
:10218000A86802430A602878C00606D508490A688C
:1021900032F48002E86802430A600020BDE8F2835E
:1021A0001C100240007000402010024040044242D7
:1021B000041002402DE9F04104005FF00008002502
:1021C00000260027002C01D1012093E0A068002800
:1021D00001D0207D0028A06A002807D10020E062FD
:1021E000002084F824002000FEF736FB200000F0D9
:1021F00037F9A16AC90676D40100C9B2002972D1A3
:10220000A16A31F4885151F00201A1626268E1696A
:102210000A43217B52EA41021643A168B1F5807F4F
:1022200002D0A168012902D14FF4807100E00021A1
:102230000D43217D012911D1217B002906D1A169FE
:10224000491E490351F400610D4307E0A16A51F0B2
:102250002001A162E16A51F00101E162216849684F
:1022600031F4694129432268516021688A68DFF8A6
:10227000DC110A40324321688A60A168B1F5807F91
:1022800002D0A168012902D14FF4807100E0002141
:10229000B1F5807F03D12169491E09050F0021682E
:1022A000C96A31F4700139432268D16221688A68B1
:1022B000DFF89C110A40B24208D10021E162A16A14
:1022C00031F0020151F00101A16212E0A16A31F086
:1022D000020151F01001A162E16A51F00101E162D5
:1022E0000121080005E0A16A51F01001A16201215D
:1022F0000800C0B2BDE8F08178B4020000230020DD
:10230000009092F82400012801D102209BE00120D6
:1023100082F824004868072812D21068446B1F25F1
:102320004868461E05204643B540AC430D684868E2
:10233000461E05204643B5402C431068446329E0FF
:1023400048680D2812D21068046B1F254868C61F04
:1023500005204643B540AC430D684868C61F0520BC
:102360004643B5402C431068046313E01068C46A08
:102370001F254868B0F10D0605204643B540AC4323
:102380000D684868B0F10D0605204643B5402C4362
:102390001068C46208680A2814D31068C468072546
:1023A0000868B0F10A0603204643B540AC438D6887
:1023B0000868B0F10A0603204643B5402C43106874
:1023C000C4600FE01068046907250E6803204643C7
:1023D000B540AC438D680E6803204643B5402C439E
:1023E000106804610868102802D00868112825D1F7
:1023F0001068184CA0421BD11068806800021DD4E0
:102400001068806850F400001468A0600868102804
:1024100014D111480068114CB0FBF4F40A20444375
:1024200000940098002809D00098401E0090F8E71A
:10243000906A50F02000906201200300002082F892
:1024400024001800C0B272BC70470000FDF7E1FF25
:10245000FE0E1FFF002401400400002040420F0038
:1024600038B50400002520688068C0071BD52068A7
:102470008068400840002168886000F097FE0500F1
:1024800020688068C0070ED500F090FE401B03282E
:10249000F6D3A06A50F01000A062E06A50F001008C
:1024A000E062012000E0002032BD000010B5040011
:1024B000002C01D101205AE0606A002806D1606832
:1024C000B0F5827F06D00020E06103E000202061AB
:1024D000002060610020A06294F85100002805D11E
:1024E000002084F850002000FEF7FAF9022084F85A
:1024F00051002068006830F0400021680860606882
:1025000010F48270A16811F404410843E16811F4E9
:1025100000610843217C11F002010843217D11F084
:1025200001010843A16911F400710843217F11F0F2
:102530003801084394F8201011F080010843A16A83
:1025400011F40051084321680860A069000C10F0E4
:102550000400216848602068C06930F40060216888
:10256000C86100206065012084F85100002010BD82
:102570002DE9FE4F07000D00160098460C9C5FF0F9
:1025800001095FF0000A97F85000012801D10220EC
:102590000AE1012087F8500000F008FE834697F812
:1025A00051008DF8000078680290ADF802809DF827
:1025B000000001280DD00298B0F5827F06D1B868DE
:1025C000002803D19DF80000042802D00220824692
:1025D000E2E0002D05D0002E03D0404680B2002856
:1025E00002D101208246D7E097F85100042802D09A
:1025F000052087F8510000207865BE63A7F83E806B
:10260000A7F83C803D63A7F83680A7F83480002007
:1026100038640020786438680068400605D438685B
:10262000006850F0400039680860F868B0F5006F45
:102630004CD17868002803D0BDF80200012809D1E8
:10264000386B00883968C860386B801C3863F88E36
:10265000401EF886F88E002803D1F88F002800F07D
:10266000838038688068800711D5F88E00280ED0E6
:10267000B9F1010F0BD1386B00883968C860386B2D
:10268000801C3863F88E401EF8860020814638682A
:102690008068C0070ED5F88F00280BD03868C06856
:1026A000B96B0880B86B801CB863F88F401EF88740
:1026B0000120814600F07AFDB0EB0B00A042C9D3A7
:1026C00014F1010FC6D00320824665E07868002827
:1026D00003D0BDF80200012809D1386B00783968B1
:1026E0000873386B401C3863F88E401EF886F88EED
:1026F000002802D1F88F002836D03868806880071B
:1027000011D5F88E00280ED0B9F1010F0BD1386B1E
:10271000007839680873386B401C3863F88E401EA7
:10272000F8860020814638688068C0070ED5F88F8B
:1027300000280BD03868C068B96B0870B86B401CB3
:10274000B863F88F401EF8870120814600F02EFD07
:10275000B0EB0B00A04202D314F1010F01D1002C09
:10276000C5D10320824617E05A462100380000F008
:102770008AF8002804D001208246202078650BE0EA
:10278000B868002808D1002001903868C06801901E
:102790003868806801900198012087F85100002076
:1027A00087F850005046C0B2BDE8FE8F2DE9FC47C7
:1027B00005000E0017009846DDF8289000F0F6FCA2
:1027C0000400B8EB040419EB040400F0EFFC8246AB
:1027D000DFF8DC0000684001000D00FB04F0009011
:1027E000286880683040B04201D1012000E000201C
:1027F0003900C9B2884243D018F1010FF0D000F07F
:10280000D5FCB0EB0A00A04201D2002C2FD12868E1
:10281000406830F0E000296848606868B0F5827F61
:102820000DD1A868B0F5004F03D0A868B0F5806F4F
:1028300005D12868006830F0400029680860A86A5F
:10284000B0F5005F0BD12868006830F400502968AB
:1028500008602868006850F400502968086001206A
:1028600085F85100002085F85000032009E0009809
:10287000002801D1002004000098401E0090AFE71E
:102880000020BDE8F6877CB504000D001600009618
:102890002B00002280212000FFF788FF002805D0B0
:1028A000606D50F020006065032000E0002076BDE0
:1028B0000400002030B4020092F83C00012801D14D
:1028C00002202CE0012082F83C00022082F83D002A
:1028D000106843681068846833F070030868034325
:1028E0001068436010680F4DA8420BD01068B0F11B
:1028F000804F07D010680C4DA84203D010680B4DD4
:10290000A84205D134F0800448680443106884600C
:10291000012082F83D00002082F83C00002030BCFD
:1029200070470000002C01400004004000080040F7
:1029300010B50400002C01D1012033E0A06900286B
:10294000FFD194F83900002805D1002084F8380020
:102950002000FEF776F8242084F839002068C0684B
:1029600030F400502168C860200000F0BFF82068F3
:10297000006930F49040216808612068406930F0B7
:102980002A00216848612068C06850F4005021681E
:10299000C8600020E063202084F83900202084F8FB
:1029A0003A00002010BD2DE9FC4706000D0017007D
:1029B0009846002496F8390020285DD1002D03D0D8
:1029C000380080B2002801D1012056E096F8380086
:1029D000012801D1022050E0012086F838000020B3
:1029E000F063212086F8390000F0E0FB8146B784CF
:1029F000F784B068B0F5805F05D13069002802D156
:102A00000024AA4602E02C005FF0000A002086F8AD
:102A10003800F08C00281ED0CDF800804B460022F4
:102A20008021300000F02BF8002801D0032024E0A2
:102A3000002C08D1BAF80000C005C00D316848600C
:102A40001AF1020A03E0207831684860641CF08CB7
:102A5000401EF084DDE7CDF800804B460022402187
:102A6000300000F00CF8002801D0032005E0202001
:102A700086F83900002000E00220BDE8F6872DE945
:102A8000F04105000E0090461F00069C2868006873
:102A90003040B04201D1012000E000204146C9B2DF
:102AA000884220D114F1010FF0D0002C04D000F0A6
:102AB0007DFBC01B8442E9D22868C06830F4D07026
:102AC0002968C86028684069400840002968486152
:102AD000202085F83900202085F83A00002085F86C
:102AE0003800032000E00020BDE8F081F8B50400C4
:102AF0002068016931F44051E068014320680161B8
:102B0000A56820690543606905432068C1682D48B0
:102B1000014029432068C1602068416931F4407157
:102B2000A06901432068416120682749884202D199
:102B3000FFF767FA01E0FFF759FA6421192202FB57
:102B400000F36668B600B3FBF6F36426B3FBF6F356
:102B500002FB00F66768BF00B6FBF7F602FB00F762
:102B6000D4F804C05FEA8C0CB7FBFCF75FF0640C90
:102B7000B7FBFCF701FB1766360132366427B6FB5C
:102B8000F7F616F0F00616EB031602FB00F3676883
:102B9000BF00B3FBF7F302FB00F26768BF00B2FBB4
:102BA000F7F26427B2FBF7F201FB1231090132316F
:102BB0006422B1FBF2F111F00F018E1921688E60D1
:102BC000F1BD0000F3E9FFFF0038014010B504003B
:102BD0004FF47A700D490978B0FBF1F00C4909689F
:102BE000B1FBF0F0FEF7BFFC002801D001200CE0A3
:102BF000102C09D2002221005FF0FF30FEF797FC75
:102C000004480460002000E0012010BD0A000020FC
:102C1000040000200000002070B5040000F0C6FA97
:102C20000500260016F1010F02D00448007886192D
:102C300000F0BCFA401BB042FAD370BD0A0000207D
:102C400080B500220221DFF86804FEF764F801BDB8
:102C500080B501220221DFF85804FEF75CF801BDBF
:102C600001B582B04FF4FA600090012301AA02A9D5
:102C7000DFF84004FFF77CFC002801D0FEF7DEFB04
:102C80009DF804000EBD38B50400FFF7D9FF14F01D
:102C90001F00FFF7E5FFFF20FFF7E2FF0500FFF74A
:102CA000D7FF2800C0B232BD38B504000D00FFF7D1
:102CB000C7FF2000C0B220280BDA14F01F0050F02C
:102CC0002000C0B2FFF7CCFF2800C0B2FFF7C8FF5A
:102CD00017E02000C0B2FFF7C3FF2000C0B2E12818
:102CE0000FD02000C0B2E2280BD02000C0B2E328F1
:102CF00007D02000C0B2FF2803D02800C0B2FFF7E1
:102D0000AFFFFFF7A5FF31BD70B504000D00160041
:102D1000FFF796FF2000C0B2FFF7A2FF3000461E6B
:102D2000C0B2002805D0FF20FFF79AFF28706D1C65
:102D3000F4E7FFF78DFF70BD70B504000D001600BD
:102D4000FFF77EFF2000C0B2FFF78AFF3000461E6B
:102D5000C0B2002804D02878FFF782FF6D1CF5E789
:102D6000FFF776FF70BD80B508210020FFF79CFFBC
:102D70003F210120FFF798FF03210220FFF794FF76
:102D800003210320FFF790FF03210420FFF78CFFAE
:102D900002210520FFF788FF0E210620FFF784FFA0
:102DA00000210720FFF780FF00211120FFF77CFFA3
:102DB00000211220FFF778FF00211320FFF774FF96
:102DC00000211420FFF770FF00211520FFF76CFF92
:102DD00000211620FFF768FF00211C20FFF764FF89
:102DE00000211D20FFF760FF00F00CF900F004F94E
:102DF00000F00EF9FFF72CFF01BD1CB5DFF8B8425B
:102E0000052221003020FFF797FF05226946102098
:102E1000FFF77AFF00210800C0B205280CDA200075
:102E2000441C6A460B00DBB2D25C0078824201D0BF
:102E3000002002E0491CEEE7012016BD38B5040071
:102E40000020FFF720FF05002000C0B2022802D1B9
:102E500055F0020501E015F0FD052900C9B200207A
:102E6000FFF722FF31BD38B504000020FFF70BFF4C
:102E7000050015F0FE0514F0010005432900C9B254
:102E80000020FFF711FF31BD38B504000020FFF727
:102E9000FAFE050015F0F30514F00C0005432900B7
:102EA000C9B20020FFF700FF31BD10B504002100BA
:102EB000C9B20520FFF7F8FE10BD10B50400A11E31
:102EC000C9B20320FFF7F0FE10BD70B506000D007B
:102ED0003000C0B20028012804D9801E032820D960
:102EE000001F26D10320FFF7CEFE401C0400200067
:102EF000C0B20544FFF7A4FE70483100C9B2405C7F
:102F000050F02000C0B2FFF7ABFE2878FFF7A8FE14
:102F10006D1E2000441EC0B20028F6D1FFF798FEB7
:102F200007E0297865483200D2B2805CFFF7BCFE2A
:102F3000FFE770BD38B504000620FFF7A4FE0500CA
:102F400015F0D70525432900C9B20620FFF7ACFECE
:102F500031BD2DE9F84380460C0015000126022002
:102F6000FFF791FE070016FA08F0074317F03F0736
:102F70003900C9B20220FFF797FE15F03F01504813
:102F80004246D2B2805CFFF78FFE0120FFF77BFE46
:102F900081462000C0B2012804D116FA08F656EA8C
:102FA000090903E016FA08F639EA06094946C9B2E2
:102FB0000120FFF779FEBDE8F18338B50400200059
:102FC000C0B2062804DB00210120FFF76DFE0BE0F4
:102FD0000120FFF758FE0121A14088430500290088
:102FE000C9B20120FFF760FE31BD80B51720FFF7A1
:102FF0004AFE10F0030002BD80B5FF21E120FFF77B
:1030000053FE01BD80B5FF21E220FFF74DFE01BD5B
:1030100010B50720FFF737FE040054F070042100BC
:10302000C9B20720FFF740FE10BD10B5FFF708FE3C
:103030006020FFF715FEFF20FFF712FE0400FFF7E8
:1030400007FE2000C0B210BDF8B504000D00160048
:103050000720FFF718FEC0F342073800C0B2062869
:1030600020DA3000C0B200280AD0FFF7DEFF287057
:10307000287821280BDB00202870FFF7C3FF06E02B
:103080000F483900C9B2405CFFF7FDFD2870287871
:10309000002804D02A7821006120FFF735FE38008F
:1030A000C0B202E000202870FF20F2BD0000000046
:1030B000000C01400C0000207C3400088C34000817
:1030C0008434000838B504000D00002229002000D7
:1030D000FFF7BAFF32BD000001B5C82301226946DF
:1030E0003048FFF760FC01BD10B50400200000F07F
:1030F000A7F80200C82392B221002A48FFF753FC28
:1031000010BD2DE9F04107000C0000263000210021
:1031100080B289B2884220D2387805007F1C28000E
:10312000C0B20009C0B21021DFF87C8090FBF1F240
:1031300001FB120018F80000FFF7CEFF2800C0B214
:1031400010F00F00102190FBF1F201FB120018F8B3
:103150000000FFF7C1FF761CD8E7BDE8F0817FB51E
:1031600004000025002C05D52D20FFF7B5FF5FF0EA
:10317000FF3044430A206E4694FBF0F100FB1140FF
:10318000303070556D1C0A2094FBF0F4012CF1DAFC
:103190006D1E002D04D4705DFFF79EFF6D1EF8E7D5
:1031A0007FBD000080010020F03300080148006866
:1031B000704700BF2C020020103A07D330B4B1E8AA
:1031C0003810103AA0E83810F9D230BC530724BFA9
:1031D000B1E80810A0E8081044BF51F8043B40F8DB
:1031E000043BD20724BF31F8022B20F8022B44BF46
:1031F0000B7803707047121F17D35B0009D151F889
:10320000043B20F8023B1B0C121F20F8023BF6D2B5
:103210000BE051F8043B00F8013B1B0A20F8023B8D
:103220001B0C121F00F8013BF3D238BF121D521EB7
:1032300024BF11F8013B00F8013BF8D870470000AB
:1032400000F10103810704D010F8011B820781B14E
:10325000FAD10268A2F10131914311F0803104BF2B
:1032600050F8042FF6E709BAB1FA81F100EBD1006A
:10327000401CC01A704700007047FEE7FEE7FEE7FB
:10328000FEE770477047704780B500F02DF801BD2C
:1032900080B50F48FDF7C3FD01BD80B54FF4007048
:1032A000FDF753FD01BD80B50A48FCF7CDFF0A4884
:1032B0000168491C016009480168491C016008480F
:1032C0000168491C016007480168491C016001BD93
:1032D0003C01002064000020300200203402002065
:1032E000380200203C02002003490A6803480078A5
:1032F00082180A60704700BF2C0200200A000020DC
:1033000030B450F8041B79B10268436802440830B5
:10331000DC0744BFA9F10104E31852F8045B43F849
:10332000045B091FF9D1ECE730BC704710B50749C1
:1033300079441831064C7C44163404E00A68081DB0
:10334000114488470146A142F8D110BD0800000091
:10335000280000008FD4FFFF3C0200000C0000207A
:10336000000000009DFFFFFF0C000000EC000000CB
:10337000000000200000000000F00DF8002801D03F
:10338000FFF7D4FFAFF300800020AFF30080FDF71C
:103390000DFE00F002F80120704700F001B80000B7
:1033A0000746384600F002F8FBE7000080B5AFF3AF
:1033B0000080024A11001820ABBEFBE72600020085
:1033C0006E524632344C30312B20636865636B3A61
:1033D000204641494C0D0A006E524632344C303181
:1033E0002B20636865636B3A204F4B0D0A00000089
:1033F000303132333435363738394142434445462B
:103400000000000002030405060708090A0B0C0D62
:103410000E0F101000000000000000000102030465
:103420000607080901488047014800474135000860
:103430004D340008524356205049504523000000A7
:10344000205041594C4F41443A3E0000AFF30080B8
:10345000AFF30080FFF790FF100000000024F4009D
:103460000101010000000000000000000000000059
:103470000000000000000000000000006E52463214
:103480003400000011121314151600000A0B0C0D65
:103490000E0F10000000000001020304E71CE3000F
:1034A000FFF7FEBFFFF7FEBFFFF7FEBFFFF7FEBF50
:1034B000FFF7FEBFFFF7FEBFFFF7FEBFFFF7FEBF40
:1034C000FFF7FEBFFFF7FEBFFFF7FEBFFFF7FEBF30
:1034D000FFF7FEBFFFF7FEBFFFF7FEBFFFF7FEBF20
:1034E000FFF7FEBFFFF7FEBFFFF7FEBFFFF7FEBF10
:1034F000FFF7FEBFFFF7FEBFFFF7FEBFFFF7FEBF00
:10350000FFF7FEBFFFF7FEBFFFF7FEBFFFF7FEBFEF
:10351000FFF7FEBFFFF7FEBFFFF7FEBFFFF7FEBFDF
:10352000FFF7FEBFFFF7FEBFFFF7FEBFFFF7FEBFCF
:10353000FFF7FEBFFFF7FEBFFFF7FEBFFFF7FEBFBF
:023540007047D2
:040000050800344D6E
:00000001FF
