:020000040800F2
:1000000088050020CD2C0008392B00083B2B000868
:100010003D2B00083F2B0008412B0008000000008A
:10002000000000000000000000000000432B00085A
:10003000452B000800000000472B0008492B000852
:10004000552D0008592D00085D2D0008612D000870
:10005000652D0008692D00086D2D0008712D000820
:10006000752D0008792D00087D2D0008812D0008D0
:10007000852D0008892D00088D2D0008912D000880
:10008000952D0008992D00089D2D0008A12D000830
:10009000A52D0008A92D0008AD2D0008B12D0008E0
:1000A000B52D0008512B0008B92D0008BD2D000802
:1000B000C12D0008C52D0008C92D0008CD2D000850
:1000C000D12D0008D52D0008D92D0008DD2D000800
:1000D000E12D0008E52D0008E92D0008ED2D0008B0
:1000E000F12D0008F52D0008F92D000810B50400C9
:1000F000002C01D101202FE094F83D00002805D10B
:10010000002084F83C00200000F0DBFB022084F893
:100110003D00211D206800F042FA012084F84600CD
:10012000012084F83E00012084F83F00012084F87B
:100130004000012084F84100012084F842000120A1
:1001400084F84300012084F84400012084F845002D
:10015000012084F83D00002010BD010091F83D0011
:10016000012801D0012030E0022081F83D0008681C
:10017000C06850F001000B68D8600868DFF8BC3038
:1001800098420DD00868B0F1804F09D00868DFF8B8
:10019000B030984204D00868DFF8A83098420DD1FA
:1001A0000868806810F007000200062A0CD0086872
:1001B000006850F001000B68186005E008680068EE
:1001C00050F001000B6818600020704710B5040063
:1001D000002C01D101202FE094F83D00002805D12A
:1001E000002084F83C00200000F084FB022084F80A
:1001F0003D00211D206800F0D2F9012084F846005E
:10020000012084F83E00012084F83F00012084F89A
:100210004000012084F84100012084F842000120C0
:1002200084F84300012084F84400012084F845004C
:10023000012084F83D00002010BD0000002C01408A
:10024000000400400008004010B504002068006968
:1002500080071AD52068C068800716D57FF0020095
:1002600021680861012020772068806910F0030F61
:1002700003D0200000F0B6FB05E0200000F0B3FB47
:10028000200000F0B1FB00202077206800694007C3
:100290001AD52068C068400716D57FF00400216891
:1002A0000861022020772068806910F4407F03D025
:1002B000200000F097FB05E0200000F094FB2000F8
:1002C00000F092FB002020772068006900071AD513
:1002D0002068C068000716D57FF008002168086113
:1002E000042020772068C06910F0030F03D020009D
:1002F00000F078FB05E0200000F075FB200000F026
:1003000073FB0020207720680069C0061AD520689A
:10031000C068C00616D57FF010002168086108206B
:1003200020772068C06910F4407F03D0200000F0DF
:1003300059FB05E0200000F056FB200000F054FBC4
:100340000020207720680069C0070AD52068C068AF
:10035000C00706D57FF0010021680861200000F089
:1003600044FB2068006900060AD52068C0680006C2
:1003700006D57FF0800021680861200000F036FB80
:100380002068006940060AD52068C068400606D586
:100390007FF0400021680861200000F028FB206801
:1003A000006980060AD52068C068800606D57FF0FF
:1003B000200021680861200000F01AFB10BD70B514
:1003C00004000D00160094F83C00012801D1022021
:1003D0006EE0012084F83C003000002806D004289C
:1003E0001BD0082831D00C2846D05DE029002068B9
:1003F00000F007F92068806950F0080021688861E2
:100400002068806930F00400216888612068816973
:10041000286901432068816146E02900206800F0D6
:100420001CF92068806950F40060216888612068A8
:10043000806930F48060216888612068806929695A
:1004400050EA0120216888612EE02900206800F030
:1004500035F92068C06950F008002168C86120683B
:10046000C06930F004002168C8612068C16928694A
:1004700001432068C16117E02900206800F04EF9AF
:100480002068C06950F400602168C8612068C069B4
:1004900030F480602168C8612068C069296950EA29
:1004A00001202168C861FFE7002084F83C0000209B
:1004B00070BD70B504000D0094F83C00012801D116
:1004C00002206BE0012084F83C00022084F83D000B
:1004D0002068866836F0770636F47F4620688660A6
:1004E000286800284ED010284CD020284AD0302828
:1004F00048D040283CD0502826D060282ED07028E4
:1005000007D0B0F5805F03D0B0F5005F0FD03EE0BC
:100510003DE0EB686A68A968206800F056F9206839
:10052000806850F077000600206886602FE0EB6856
:100530006A68A968206800F048F92068806850F46B
:1005400080402168886022E0EA686968206800F0DD
:100550000FF95021206800F030F918E0EA68696866
:10056000206800F017F96021206800F026F90EE0FD
:10057000EA686968206800F0FBF84021206800F014
:100580001CF904E02968206800F017F9FFE7012052
:1005900084F83D00002084F83C00002070BD10B4B9
:1005A0000368704CA04208D0B0F1804F05D06E4A6D
:1005B000904202D06D4A904203D133F070034A68F2
:1005C0001343A04208D0B0F1804F05D0664A904254
:1005D00002D0664A904203D133F44073CA68134391
:1005E00033F080034A69134303608A68C2620A6871
:1005F0008262A04201D10A6902630122426110BCF9
:10060000704770B4026A520852000262046A456878
:10061000836933F070039B089B000A68134334F02E
:1006200002048A6814434F4EB04205D134F00804E6
:10063000CA68144334F00404B04207D135F480751D
:1006400035F400754A6915438A691543456083612D
:100650004A684263046270BC704770B4026A32F048
:1006600010020262036A4468826932F4E04232F4A2
:1006700040720D6852EA052233F020038D6853EA78
:100680000513384DA84206D133F08003CE6853EAF3
:10069000061333F04003A84209D134F4806434F4E3
:1006A00000644D6954EA85048D6954EA8504446008
:1006B00082614D688563036270BC704770B4026AE2
:1006C00032F480720262046A4568C36933F07003D1
:1006D0009B089B000A68134334F400748A6854EA48
:1006E0000224204A904206D134F40064CE6854EAD1
:1006F000062434F48064904209D135F4805535F4F1
:1007000000554A6955EA02158A6955EA021545609D
:10071000C3614A68C263046270BC704730B4026A45
:1007200032F480520262036A4468C26932F4E042E1
:1007300032F440720D6852EA052233F400538D689A
:1007400053EA0533074DA84204D134F480444D697F
:1007500054EA85144460C2614D680564036230BC8C
:1007600070470000002C01400004004000080040D9
:1007700010B4046A036A5B085B000362836933F0A8
:10078000F00353EA021334F00A040C438361046259
:1007900010BC704710B4036A33F01003036283691E
:1007A000046A33F4704353EA023334F0A00454EA89
:1007B00001148361046210BC7047836833F07003D6
:1007C00051F0070213438360704730B4846834F4F7
:1007D0007F4452EA010555EA03252C43846030BC6E
:1007E000704730B4002513E050F8042BD30744BF02
:1007F000A9F101039A18091F042942F8045BFAD2EF
:1008000013468C0744BF15809B1CC90748BF1D7049
:1008100050F8041B0029E7D130BC704781B06A480A
:10082000016851F001010160006810F001000090C2
:1008300000986648016851F080510160006810F02E
:100840008050009000986249086830F0E06050F0F5
:100850000070086001B0704730B585B0040068468C
:10086000102100F0C7F820685A49884227D156481D
:10087000016851F480510160016811F480510491C4
:100880000499016851F004010160006810F004004F
:1008900004900498A020009002200190032003906F
:1008A0004D4D6946280000F0A9F840200090002036
:1008B0000190002002906946280000F09FF805B0E2
:1008C00030BD1CB5040020684449884211D13E481F
:1008D000016851F400610160006810F4006000904C
:1008E000009800220021192000F047FA192000F09A
:1008F00059FA13BD81B00168B1F1804F09D1334974
:100900000A6852F001020A60096811F001010091C1
:10091000009901B0704718B585B0040001A81021F6
:1009200000F068F82068B0F1804F13D126480168C4
:1009300051F004010160006810F00400009000987C
:100940000C200190022002900220049001A922486C
:1009500000F054F806B010BD30B585B0040068460C
:10096000102100F047F820681D49884229D1164817
:10097000016851F480410160016811F480410491E3
:100980000499016851F004010160006810F004004E
:10099000049004984FF4007000900220019003200E
:1009A00003900D4D6946280000F028F84FF4806050
:1009B000009000200190002002906946280000F07D
:1009C0001DF805B030BD0000181002401C10024098
:1009D000040001400030014000080140002C0140AB
:1009E0000038014070477047704770477047704744
:1009F00070470102002200F0F3B900002DE9F8472A
:100A000003005FF0000E5FF00008086830FA0EF097
:100A1000002800F00081012010FA0EF004000868A0
:100A200020400500A54240F0F3804868002831D0FE
:100A3000012820D0022825D003283CD011281DD021
:100A4000122823D0DFF804C2604523D0DFF800C2AB
:100A500060451FD0DFF8FCC160451BD0DFF8F8C14E
:100A6000604517D0DFF8F4C1604513D0DFF8F0C15E
:100A700060450FD022E0C86880461FE0C868001DAE
:100A800080461BE0C8680830804617E0C8680C3014
:100A9000804613E08868002802D10420804609E0DF
:100AA0008868012803D1082080461C6102E00820E4
:100AB00080465C6102E000208046FFE7B5F5807F5C
:100AC00001D21E0000E01E1DB5F5807F02D25FEA54
:100AD0008E0702E0BEF10807BF005FF00F09D6F8ED
:100AE00000C019FA07F03CEA000C18FA07F050EAC7
:100AF0000C0CC6F800C04868C00040F18980594815
:100B0000D0F800C05CF0010CC0F800C0006810F024
:100B1000010000900098DFF850C1704680085CF832
:100B200020A01EF00300C0B2800019FA00F93AEAD2
:100B3000090A4E48834202D15FF0000913E04C4895
:100B4000834202D15FF001090DE04A48834202D19D
:100B50005FF0020907E04848834202D15FF00309D1
:100B600001E05FF004091EF00300C0B2800019FA32
:100B700000F9524659EA0202704680084CF82020DB
:100B80004868C00307D53D48D0F800C055EA0C0CB2
:100B9000C0F800C006E03948D0F800C03CEA050CB7
:100BA000C0F800C04868800307D53548D0F800C0B9
:100BB00055EA0C0CC0F800C006E03148D0F800C07F
:100BC0003CEA050CC0F800C04868C00207D52D48B3
:100BD000D0F800C055EA0C0CC0F800C006E0294867
:100BE000D0F800C03CEA050CC0F800C0486880029C
:100BF00007D52548D0F800C055EA0C0CC0F800C055
:100C000006E02148D0F800C03CEA050CC0F800C05E
:100C10001EF1010EF9E6BDE8F187020090680B00B5
:100C20009BB2184201D0012000E00020C0B2704702
:100C30001300DBB2002B03D00B009BB2036103E077
:100C40000B009BB21B0403617047000000001110F1
:100C500000001210000021100000221000003110CE
:100C60000000321018100240080001400008014046
:100C7000000C01400010014000140140000401403C
:100C800004040140080401400C04014010B410F0B9
:100C900007034B4C22684FF6FF010A40494951EACD
:100CA00003210A43226010BC704745480068C0F326
:100CB00002207047010049B2002909D4012210F036
:100CC0001F018A40404903005BB25B0941F82320C1
:100CD000704710B4020052B2002A05D40A013B4BFF
:100CE000040064B21A5508E00A01394B040064B2EA
:100CF00014F00F04234403F8042C10BC704770B4A4
:100D0000030013F00704D4F10700052801D30420E1
:100D100001E0D4F10700251D072D01D2002500E0D8
:100D2000E51E012616FA00F0401E0140A94016FA01
:100D300005F56D1E2A401143080070BC704710B5C0
:100D40000400601EB0F1807F01D301200EE0601E20
:100D5000204908600F215FF0FF30FFF7BAFF002045
:100D60001D49086007201D490860002010BD10B50E
:100D700004002000FFF78AFF10BD2DE9F0410400B8
:100D80000D0016000027FFF790FF80463200290073
:100D90004046FFF7B4FF0100200040B2FFF799FF83
:100DA000BDE8F08110B50400200040B2FFF782FFDB
:100DB00010BD10B504002000FFF7C1FF10BD0000FA
:100DC0000CED00E00000FA0500E100E000E400E0C6
:100DD00018ED00E014E000E018E000E010E000E0B2
:100DE00000B500BF130096469446103928BFA0E80E
:100DF0000C50FAD85FEA417C28BF0CC048BF40F8CD
:100E0000042BC90728BF20F8022B48BF00F8012B8C
:100E100000BD00002DE9FC470400002C01D1012099
:100E2000F6E12078C0076BD5DFF80406016811F001
:100E30000C01042907D0016811F00C0108290CD11C
:100E40000068C00309D5DFF8E4050068800357D5C2
:100E50006068002854D10120DAE16068B0F5803F75
:100E600006D1DFF8C805016851F48031016026E041
:100E7000606800280AD1DFF8B405016831F48031D8
:100E80000160016831F48021016018E06068B0F50C
:100E9000A02F0AD1DFF89405016851F48021016088
:100EA000016851F48031016009E0DFF880050168D4
:100EB00031F480310160016831F4802101606068A3
:100EC00000280ED000F0D6FA0500DFF860050068B3
:100ED000800315D400F0CEFA401B6528F5D303201B
:100EE00096E100F0C7FA0500DFF8400500688003CE
:100EF00006D500F0BFFA401B6528F5D3032087E133
:100F00002078800750D5DFF82805016811F00C0F14
:100F100007D0016811F00C01082914D10068C00342
:100F200011D4DFF808050168890704D52169012972
:100F300001D001206CE1016831F0F801626951EAE9
:100F4000C201016030E0206900281AD00120DFF8DA
:100F5000F414086000F08EFA0500DFF8D004016890
:100F6000890706D400F086FA401B0328F5D3032036
:100F70004EE1016831F0F801626951EAC201016095
:100F800012E00020DFF8BC14086000F073FA0500DE
:100F9000DFF898040068800706D500F06BFA401B64
:100FA0000328F5D3032033E1207800072CD5A0696E
:100FB000002816D00120DFF89014086000F05AFADB
:100FC0000500DFF87C040068800706D400F052FAC0
:100FD000401B0328F5D303201AE1012000F012FA88
:100FE00012E00020DFF86014086000F043FA05000A
:100FF000DFF84C040068800706D500F03BFA401B80
:101000000328F5D3032003E12078400740F18E80C8
:101010000027DFF83884D8F80000C0000DD4D8F8D5
:10102000000050F08050C8F80000D8F8000010F020
:1010300080500090009801200700DFF81494D9F840
:101040000000C00513D4D9F8000050F48070C9F82E
:10105000000000F00FFA0500D9F80000C00506D422
:1010600000F008FA401B6528F6D30320D0E0E068C2
:10107000012806D1DFF8DC03016851F001010160AD
:1010800025E0E06800280AD1DFF8C80301684908B4
:1010900049000160016831F00401016017E0E06877
:1010A00005280AD1DFF8AC03016851F004010160A2
:1010B000016851F00101016009E0DFF8980301685F
:1010C000490849000160016831F004010160E068ED
:1010D000002810D000F0CEF90500DFF87803006892
:1010E000800719D400F0C6F9401B41F289318842CB
:1010F000F3D303208CE000F0BDF90500DFF85403C2
:101100000068800708D500F0B5F9401B41F289312D
:101110008842F3D303207BE03800C0B2012805D118
:10112000D8F8000030F08050C8F80000E0690028CE
:101130006DD0DFF8FC82D8F8000010F00C00082811
:1011400051D0E06902283BD1DFF80CA30020CAF897
:10115000000000F08FF90700DFF8D092D9F8000006
:10116000800106D500F086F9C01B0328F4D30320C4
:101170004EE0206AB0F5803F07D1D8F8001031F476
:101180000031A0680143C8F80010D8F8001031F40D
:101190007411206A0143606A0143C8F800100120FD
:1011A000CAF8000000F066F90500D9F800008001D7
:1011B0002DD400F05FF9401B0328F6D3032027E06D
:1011C0000020DFF89412086000F054F90500DFF801
:1011D0005C02006880011AD500F04CF9401B03281E
:1011E000F5D3032014E0E069012801D101200FE0CC
:1011F000D8F80000060016F48030216A884204D135
:1012000016F47010616A884201D0012000E00020CD
:10121000BDE8F6872DE9F04104000D00002C01D156
:1012200001209CE0DFF83472386810F00700A84213
:101230000BD23868C008C00028433860386810F006
:101240000700A84201D0012089E02078800717D547
:101250002078400705D5DFF8D801016851F4E06136
:1012600001602078000704D57148016851F460518D
:1012700001606F490A6832F0F002A06802430A6018
:101280002078C00735D56068012805D16748006817
:10129000800310D4012062E06068022805D1634811
:1012A0000068800107D4012059E060480068800789
:1012B00001D4012053E0DFF87881D8F800108908C4
:1012C000890060680143C8F8001000F0D3F80600F8
:1012D000D8F8000010F00C006168B0EB810F08D066
:1012E00000F0C8F8801B41F289318842F0D3032016
:1012F00035E0386810F0070085420BD23868C00826
:10130000C00028433860386810F00700A84201D0B8
:10131000012024E02078400706D545490A6832F4C8
:10132000E062E06802430A602078000707D5404881
:10133000016831F46051226951EAC201016000F094
:1013400010F847493A4A1268C2F30312895CC84050
:10135000394908603948006800F092F80020BDE87B
:10136000F081F0B585B001A83E49102200F0AEF83A
:101370003D480088ADF80000002000210022002335
:1013800000252B4E346814F00C07042F02D0082FD0
:1013900002D01BE027481AE001A8C4F38347C05DD0
:1013A0000300E0030CD568463668C6F34046805D0E
:1013B0000100204800FB03F0B0FBF1F0020003E065
:1013C0002A4800FB03F00200100000E0194805B0B5
:1013D000F0BD19480068704780B5FFF7FAFF24494F
:1013E000134A1268C2F30222895CC84002BD80B56C
:1013F000FFF7EFFF1E490E4A1268C2F3C222895C52
:10140000C84002BD81B00C490968C9084FF47A721E
:10141000B1FBF2F101FB00F1009100BF00994A1EFF
:1014200000920029F9D101B070470000001002407D
:101430000410024000127A0008000020040000207E
:101440002410024000004242800442421C1002402C
:101450000070004020100240600042420020024024
:10146000BC2C0008AC2C0008F209000800093D0063
:10147000482D000801480068704700BF7001002037
:1014800010B504004FF47A700D490978B0FBF1F003
:101490000C490968B1FBF0F0FFF78BFC002801D084
:1014A00001200CE0102C09D2002221005FF0FF3057
:1014B000FFF763FC04480460002000E0012010BD39
:1014C0000C0000200800002004000020103A07D380
:1014D00030B4B1E83810103AA0E83810F9D230BC76
:1014E000530724BFB1E80810A0E8081044BF51F822
:1014F000043B40F8043BD20724BF31F8022B20F80C
:10150000022B44BF0B7803707047121F17D35B0088
:1015100009D151F8043B20F8023B1B0C121F20F8A4
:10152000023BF6D20BE051F8043B00F8013B1B0AEA
:1015300020F8023B1B0C121F00F8013BF3D238BF0E
:10154000121D521E24BF11F8013B00F8013BF8D8D0
:101550007047000010B54FF4FA7000F08FFADFF812
:10156000CC444FF400522100002000F087F94FF4E2
:1015700080422100002000F081F94FF40042210058
:10158000002000F07BF94FF40042DFF8A4140020A3
:1015900000F074F9DFF89C04FEF7DFFD642000F032
:1015A0006DFA00F0F9FA0C20DFF88C1408704FF493
:1015B000FA7000F063FA10BD80B500F052F8DFF861
:1015C0007C04DFF87C140A7802704A7842708A78CA
:1015D0008270C978C170DFF86C140A880271B1F9A1
:1015E0000020121242714A888271B1F90210091268
:1015F000C171DFF854140A880272B1F90020121286
:1016000042724A888272B1F902100912C17200F066
:101610004BF9DFF838040168C92903D300210160C0
:1016200000F063F940F6B930DFF824140A6882420A
:1016300016D30A68824208D3086840F6C232904244
:1016400003D20120DFF80C24D070086840F61D4258
:10165000904205D3002008600020DFF8F813C8701E
:1016600001BD70B5DFF8EC53DFF8C0434FF4005212
:101670002100287800F002F94FF4804221006878B8
:1016800000F0FCF84FF400422100A87800F0F6F8D2
:10169000DFF89C434FF400422100E87800F0EEF8B8
:1016A000DFF89C53DFF8B06308223100687810F04F
:1016B000010000F0C6F8697860F30001697010223B
:1016C00031006878C0F34000C0B200F0BAF8697821
:1016D00060F3410169704FF4807231006878C0F3A3
:1016E0008010C0B200F0ADF8697860F386116970BF
:1016F0004FF400723100A87810F0010000F0A1F85A
:10170000A97860F30001A970687810F07F00687014
:101710004FF400623100A878C0F34000C0B200F07E
:1017200090F8A97860F34101A9704FF4806231000C
:10173000A878C0F38000C0B200F083F8A97860F305
:101740008201A9704FF480523100287810F0010016
:1017500000F077F8297860F3000129704FF4005207
:1017600031002878C0F34000C0B200F06AF8297850
:1017700060F3410129704FF4804231002878C0F3B2
:101780008000C0B200F05DF8297860F38201297012
:101790004FF4004231002878C0F3C000C0B200F01E
:1017A00050F8297860F3C30129704FF4807221004A
:1017B0002878C0F30010C0B200F043F8297860F335
:1017C000041129704FF4006221002878C0B2C009CA
:1017D00000F037F8297811F07F0151EAC011297023
:1017E000202231006878C0F38000C0B200F029F8F0
:1017F000697860F382016970402231006878C0F333
:10180000C000C0B200F01DF8697860F3C3016970D0
:10181000012221006878C0F30010C0B200F011F876
:10182000697860F304116970802231006878C0F330
:101830004010C0B200F005F8697860F34511697096
:1018400070BD2DE9F04104000D0016002700B846D8
:10185000310089B22800FFF7E0F95FFA88F8804587
:1018600008D0310089B22800FFF7D7F9070000201F
:101870007A4908603800C0B2BDE8F08170B5040054
:101880000D0016002000C0B2012806D10022310050
:1018900089B22800FFF7CCF905E00122310089B2B6
:1018A0002800FFF7C5F970BD70B500F096FB012860
:1018B0001AD06B4C614D604E3100280000F0FAFBED
:1018C000207000F09DFB674800F008F9207800F0D8
:1018D00041F9654800F002F9317889B2280000F03A
:1018E0000BF951A000F0FAF870BD10B554494878D2
:1018F000C0B2C009C0B200280CD05C4A10780028E1
:101900000BD0002010705A488278D24312F00102A6
:10191000827002E00120554A1070887810F00100B2
:1019200000282BD05349087800282AD000200870BE
:101930004F498878002810D00878012804D020D397
:10194000032807D003D31CE00220087019E003200D
:10195000087016E00120087013E04878012804D0D0
:101960000FD3032807D003D30BE00220487008E010
:101970000320487005E00120487002E001203D4945
:1019800008703B49887800281FD10878012804D0C6
:101990003DD3032811D008D339E02E48012101702E
:1019A000002141700021817031E02A48002101703E
:1019B000012141700021817029E026480021017039
:1019C000002141700121817021E04878012804D074
:1019D0001DD3032813D009D319E01E4C207800F042
:1019E00017F8002060700020A07010E0194C002053
:1019F0002070607800F00CF80020A07007E0154817
:101A00000021017000214170807800F001F810BDC4
:101A100019490A6840F2E9339A4204D300220A6065
:101A2000C04310F0010070473C0D0A000010014057
:101A300000080140680000208701002038010020D4
:101A4000680100205801002060010020780100207A
:101A50007C0100206C010020000C0140740100207A
:101A600086010020EC2C0008F82C000884010020DE
:101A700000000020850100208001002070B50400D6
:101A8000FFF7F8FC0500260016F1010F02D004480C
:101A900000788619FFF7EEFC401BB042FAD370BD08
:101AA0000C00002080B5002201215948FFF7C0F842
:101AB00001BD80B5012201215548FFF7B9F801BDEC
:101AC00010B504002000FFF7D9FF10BD01B5C823F1
:101AD000012269464F4800F032FB01BD10B50400F9
:101AE000200000F03FFC0200C82392B221004948C8
:101AF00000F025FB10BD70472DE9F04107000C00F8
:101B000000263000210080B289B2884220D2387885
:101B100005007F1C2800C0B20009C0B21021DFF808
:101B2000F88090FBF1F201FB120018F80000FFF7BB
:101B3000CDFF2800C0B210F00F00102190FBF1F291
:101B400001FB120018F80000FFF7C0FF761CD8E771
:101B5000BDE8F0817FB504000025002C05D52D20BF
:101B6000FFF7B4FF5FF0FF3044430A206E4694FB5A
:101B7000F0F100FB1140303070556D1C0A2094FBD1
:101B8000F0F4012CF1DA6D1E002D04D4705DFFF726
:101B90009DFF6D1EF8E77FBD80B52048FFF79EFFD3
:101BA000FFF780FF1E48FFF799FF00F01EF900289D
:101BB00008D11C48FFF792FFFFF79DFF3220FFF787
:101BC0007FFFF9E71848FFF789FF00F0C4F8FF200E
:101BD00000F0EBF9732000F060F9202000F0A2F98A
:101BE0000C2000F049F9032000F05FF90F490120B3
:101BF00000F063F90C220021012000F0A2F901207D
:101C000000F029F9022000F011F9FFF752FF02BDA0
:101C1000000C0140F8000020842C0008682C00080B
:101C2000982C0008382D0008402D0008502D000881
:101C300080B500220221DFF86804FEF7F9FF01BD3C
:101C400080B501220221DFF85804FEF7F1FF01BD43
:101C500001B582B04FF4FA600090012301AA02A9F5
:101C6000DFF8400400F0FCFB002801D000F012FF78
:101C70009DF804000EBD38B50400FFF7D9FF14F03D
:101C80001F00FFF7E5FFFF20FFF7E2FF0500FFF76A
:101C9000D7FF2800C0B232BD38B504000D00FFF7F1
:101CA000C7FF2000C0B220280BDA14F01F0050F04C
:101CB0002000C0B2FFF7CCFF2800C0B2FFF7C8FF7A
:101CC00017E02000C0B2FFF7C3FF2000C0B2E12838
:101CD0000FD02000C0B2E2280BD02000C0B2E32811
:101CE00007D02000C0B2FF2803D02800C0B2FFF701
:101CF000AFFFFFF7A5FF31BD70B504000D00160062
:101D0000FFF796FF2000C0B2FFF7A2FF3000461E8B
:101D1000C0B2002805D0FF20FFF79AFF28706D1C85
:101D2000F4E7FFF78DFF70BD70B504000D001600DD
:101D3000FFF77EFF2000C0B2FFF78AFF3000461E8B
:101D4000C0B2002804D02878FFF782FF6D1CF5E7A9
:101D5000FFF776FF70BD80B508210020FFF79CFFDC
:101D60003F210120FFF798FF03210220FFF794FF96
:101D700003210320FFF790FF03210420FFF78CFFCE
:101D800002210520FFF788FF0E210620FFF784FFC0
:101D900000210720FFF780FF00211120FFF77CFFC3
:101DA00000211220FFF778FF00211320FFF774FFB6
:101DB00000211420FFF770FF00211520FFF76CFFB2
:101DC00000211620FFF768FF00211C20FFF764FFA9
:101DD00000211D20FFF760FF00F00CF900F004F96E
:101DE00000F00EF9FFF72CFF01BD1CB5DFF8B8427B
:101DF000052221003020FFF797FF052269461020B9
:101E0000FFF77AFF00210800C0B205280CDA200095
:101E1000441C6A460B00DBB2D25C0078824201D0DF
:101E2000002002E0491CEEE7012016BD38B5040091
:101E30000020FFF720FF05002000C0B2022802D1D9
:101E400055F0020501E015F0FD052900C9B200209A
:101E5000FFF722FF31BD38B504000020FFF70BFF6C
:101E6000050015F0FE0514F0010005432900C9B274
:101E70000020FFF711FF31BD38B504000020FFF747
:101E8000FAFE050015F0F30514F00C0005432900D7
:101E9000C9B20020FFF700FF31BD10B504002100DA
:101EA000C9B20520FFF7F8FE10BD10B50400A11E51
:101EB000C9B20320FFF7F0FE10BD70B506000D009B
:101EC0003000C0B20028012804D9801E032820D980
:101ED000001F26D10320FFF7CEFE401C0400200087
:101EE000C0B20544FFF7A4FE70483100C9B2405C9F
:101EF00050F02000C0B2FFF7ABFE2878FFF7A8FE35
:101F00006D1E2000441EC0B20028F6D1FFF798FED7
:101F100007E0297865483200D2B2805CFFF7BCFE4A
:101F2000FFE770BD38B504000620FFF7A4FE0500EA
:101F300015F0D70525432900C9B20620FFF7ACFEEE
:101F400031BD2DE9F84380460C0015000126022022
:101F5000FFF791FE070016FA08F0074317F03F0756
:101F60003900C9B20220FFF797FE15F03F01504833
:101F70004246D2B2805CFFF78FFE0120FFF77BFE66
:101F800081462000C0B2012804D116FA08F656EAAC
:101F9000090903E016FA08F639EA06094946C9B202
:101FA0000120FFF779FEBDE8F18338B50400200079
:101FB000C0B2062804DB00210120FFF76DFE0BE014
:101FC0000120FFF758FE0121A140884305002900A8
:101FD000C9B20120FFF760FE31BD80B51720FFF7C1
:101FE0004AFE10F0030002BD80B5FF21E120FFF79B
:101FF00053FE01BD80B5FF21E220FFF74DFE01BD7C
:1020000010B50720FFF737FE040054F070042100DC
:10201000C9B20720FFF740FE10BD10B5FFF708FE5C
:102020006020FFF715FEFF20FFF712FE0400FFF708
:1020300007FE2000C0B210BDF8B504000D00160068
:102040000720FFF718FEC0F342073800C0B2062889
:1020500020DA3000C0B200280AD0FFF7DEFF287077
:10206000287821280BDB00202870FFF7C3FF06E04B
:102070000F483900C9B2405CFFF7FDFD2870287891
:10208000002804D02A7821006120FFF735FE3800AF
:10209000C0B202E000202870FF20F2BD0000000066
:1020A000000C014010000020202D0008302D0008F9
:1020B000282D000838B504000D000022290020005A
:1020C000FFF7BAFF32BD000010B50400002C01D1AB
:1020D000012033E0A0690028FFD194F839000028DE
:1020E00005D1002084F838002000FEF735FC2420BC
:1020F00084F839002068C06830F400502168C86056
:10210000200000F0BFF82068006930F4904021689A
:1021100008612068406930F02A0021684861206821
:10212000C06850F400502168C8600020E06320209F
:1021300084F83900202084F83A00002010BD2DE9F1
:10214000FC4706000D0017009846002496F8390059
:1021500020285DD1002D03D0380080B2002801D1A5
:10216000012056E096F83800012801D1022050E005
:10217000012086F838000020F063212086F839001D
:10218000FFF778F98146B784F784B068B0F5805FCF
:1021900005D13069002802D10024AA4602E02C00B3
:1021A0005FF0000A002086F83800F08C00281ED06E
:1021B000CDF800804B4600228021300000F02BF843
:1021C000002801D0032024E0002C08D1BAF8000038
:1021D000C005C00D316848601AF1020A03E020789A
:1021E00031684860641CF08C401EF084DDE7CDF857
:1021F00000804B4600224021300000F00CF80028FF
:1022000001D0032005E0202086F83900002000E0FE
:102210000220BDE8F6872DE9F04105000E0090464A
:102220001F00069C286800683040B04201D10120A0
:1022300000E000204146C9B2884220D114F1010FCC
:10224000F0D0002C04D0FFF715F9C01B8442E9D26E
:102250002868C06830F4D0702968C8602868406970
:102260004008400029684861202085F83900202076
:1022700085F83A00002085F83800032000E00020AF
:10228000BDE8F081F8B504002068016931F44051DF
:10229000E068014320680161A56820690543606921
:1022A00005432068C1682D48014029432068C1606A
:1022B0002068416931F44071A0690143206841619F
:1022C00020682749884202D1FFF791F801E0FFF723
:1022D00083F86421192202FB00F36668B600B3FBA1
:1022E000F6F36426B3FBF6F302FB00F66768BF0063
:1022F000B6FBF7F602FB00F7D4F804C05FEA8C0CDB
:10230000B7FBFCF75FF0640CB7FBFCF701FB17664B
:10231000360132366427B6FBF7F616F0F00616EBF8
:10232000031602FB00F36768BF00B3FBF7F302FB81
:1023300000F26768BF00B2FBF7F26427B2FBF7F266
:1023400001FB1231090132316422B1FBF2F111F0CB
:102350000F018E1921688E60F1BD0000F3E9FFFFC7
:102360000038014000F10103810704D010F8011B7F
:10237000820781B1FAD10268A2F10131914311F0D3
:10238000803104BF50F8042FF6E709BAB1FA81F1A1
:1023900000EBD100401CC01A7047000010B50400CB
:1023A000002C01D101205AE0606A002806D1606843
:1023B000B0F5827F06D00020E06103E000202061BC
:1023C000002060610020A06294F85100002805D12F
:1023D000002084F850002000FEF73EFA022084F826
:1023E00051002068006830F0400021680860606893
:1023F00010F48270A16811F404410843E16811F4FB
:1024000000610843217C11F002010843217D11F095
:1024100001010843A16911F400710843217F11F003
:102420003801084394F8201011F080010843A16A94
:1024300011F40051084321680860A069000C10F0F5
:102440000400216848602068C06930F40060216899
:10245000C86100206065012084F85100002010BD93
:102460002DE9FE4F07000D00160098460C9C5FF00A
:1024700001095FF0000A97F85000012801D10220FD
:102480000AE1012087F85000FEF7F4FF834697F831
:1024900051008DF8000078680290ADF802809DF838
:1024A000000001280DD00298B0F5827F06D1B868EF
:1024B000002803D19DF80000042802D002208246A3
:1024C000E2E0002D05D0002E03D0404680B2002867
:1024D00002D101208246D7E097F85100042802D0AB
:1024E000052087F8510000207865BE63A7F83E807C
:1024F000A7F83C803D63A7F83680A7F83480002019
:1025000038640020786438680068400605D438686C
:10251000006850F0400039680860F868B0F5006F56
:102520004CD17868002803D0BDF80200012809D1F9
:10253000386B00883968C860386B801C3863F88E47
:10254000401EF886F88E002803D1F88F002800F08E
:10255000838038688068800711D5F88E00280ED0F7
:10256000B9F1010F0BD1386B00883968C860386B3E
:10257000801C3863F88E401EF8860020814638683B
:102580008068C0070ED5F88F00280BD03868C06867
:10259000B96B0880B86B801CB863F88F401EF88751
:1025A00001208146FEF766FFB0EB0B00A042C9D3C5
:1025B00014F1010FC6D00320824665E07868002838
:1025C00003D0BDF80200012809D1386B00783968C2
:1025D0000873386B401C3863F88E401EF886F88EFE
:1025E000002802D1F88F002836D03868806880072C
:1025F00011D5F88E00280ED0B9F1010F0BD1386B30
:10260000007839680873386B401C3863F88E401EB8
:10261000F8860020814638688068C0070ED5F88F9C
:1026200000280BD03868C068B96B0870B86B401CC4
:10263000B863F88F401EF88701208146FEF71AFF25
:10264000B0EB0B00A04202D314F1010F01D1002C1A
:10265000C5D10320824617E05A462100380000F019
:102660008AF8002804D001208246202078650BE0FB
:10267000B868002808D1002001903868C06801902F
:102680003868806801900198012087F85100002087
:1026900087F850005046C0B2BDE8FE8F2DE9FC47D8
:1026A00005000E0017009846DDF82890FEF7E2FEC0
:1026B0000400B8EB040419EB0404FEF7DBFE8246C9
:1026C000DFF8DC0000684001000D00FB04F0009022
:1026D000286880683040B04201D1012000E000202D
:1026E0003900C9B2884243D018F1010FF0D0FEF78B
:1026F000C1FEB0EB0A00A04201D2002C2FD1286805
:10270000406830F0E000296848606868B0F5827F72
:102710000DD1A868B0F5004F03D0A868B0F5806F60
:1027200005D12868006830F0400029680860A86A70
:10273000B0F5005F0BD12868006830F400502968BC
:1027400008602868006850F400502968086001207B
:1027500085F85100002085F85000032009E000981A
:10276000002801D1002004000098401E0090AFE72F
:102770000020BDE8F6877CB504000D001600009629
:102780002B00002280212000FFF788FF002805D0C1
:10279000606D50F020006065032000E0002076BDF1
:1027A0000800002080B500F077F900F00FF800F085
:1027B00005F900F040F800F061F800F09AF800F038
:1027C000E3F8FEF7C7FEFEF7F7FEFCE700B58FB0B3
:1027D00005A82821FEF70EF968461421FEF70AF92C
:1027E000012005905FF480300690002107910121BF
:1027F000099102210C910D905FF4E0100E9005A854
:10280000FEF708FB002801D000F044F90F200090EB
:1028100002200190002002904FF48060039000207D
:10282000049002216846FEF7F5FC002801D000F074
:1028300031F90FB000BD80B58A488B4901604FF473
:1028400082714160002181600021C160002101612D
:10285000002141614FF4007181611821C1610021A3
:10286000016200214162002181620A21C162FFF7F9
:1028700095FD002801D000F00DF901BD10B586B01E
:1028800002A81021FEF7B6F87848D0E90023CDE978
:102890000023774C7748206041F61F40606000209D
:1028A000A0600920E060002020610020606100201D
:1028B000A0612000FDF71AFC002801D000F0EAF822
:1028C0004FF48050029002A92000FDF7F2FD00288D
:1028D00001D000F0DFF80020009000200190694650
:1028E000200000F0EBF8002801D000F0D3F806B08B
:1028F00010BD18B589B06048D0E90023CDE90023A8
:1029000002A81C21FEF776F85C4C5FF08040206046
:10291000482060600020A0601420E060002020615A
:102920000020A0612000FDF751FC002801D000F03C
:10293000B1F800200090002001906946200000F0CE
:10294000BDF8002801D000F0A5F86020029000201A
:1029500003900020049000200690082202A9200085
:10296000FDF72DFD002801D000F094F80C2202A9FB
:102970002000FDF724FD002801D000F08BF8200096
:10298000FDF7C9FF0AB010BD80B53D483D49016063
:102990005FF4E1314160002181600021C1600021CC
:1029A00001610C214161002181610021C161FFF7BA
:1029B0008BFB002801D000F06DF801BD30B585B06B
:1029C00068461021FEF716F82F48016851F01001F3
:1029D0000160016811F0100104910499016851F03F
:1029E00020010160016811F020010491049901683F
:1029F00051F004010160016811F00401049104998F
:102A0000016851F008010160006810F008000490AE
:102A100004981E4D00224FF460412800FEF708F98B
:102A20001B4C002203212000FEF702F94FF4604006
:102A3000009001200190002002900220039069463E
:102A40002800FDF7DBFF032000900120019000200B
:102A500002900220039069462000FDF7CFFF05B0E9
:102A600030BD00001000002000300140102D000893
:102A700068000020002C0140182D0008B000002044
:102A8000F8000020003801401810024000100140FA
:102A9000000C01407047000080B50748016851F004
:102AA000100101600320FEF762F90020FEF7E8FC48
:102AB000FDF7B4FE002002BD0020024030B4020049
:102AC00092F83C00012801D102202CE0012082F87C
:102AD0003C00022082F83D0010684368106884685A
:102AE00033F07003086803431068436010680F4DAB
:102AF000A8420BD01068B0F1804F07D010680C4D81
:102B0000A84203D010680B4DA84205D134F08004D0
:102B10004868044310688460012082F83D0000206A
:102B200082F83C00002030BC70470000002C0140BF
:102B300000040040000800407047FEE7FEE7FEE7A3
:102B4000FEE770477047704780B500F021F801BD7F
:102B500080B50A48FDF778FB09480168491C016007
:102B600008480168491C016007480168491C016068
:102B700006480168491C016001BD00006800002092
:102B800074010020780100207C01002080010020D9
:102B900003490A680348007882180A60704700BF3A
:102BA000700100200C00002030B450F8041B79B1F3
:102BB0000268436802440830DC0744BFA9F10104FD
:102BC000E31852F8045B43F8045B091FF9D1ECE702
:102BD00030BC704710B5074979441831064C7C4425
:102BE000163404E00A68081D114488470146A142D2
:102BF000F8D110BD0800000028000000E7DBFFFF4F
:102C00007801000010000020000000009DFFFFFF81
:102C100010000000C80000000000002000000000BC
:102C200000F00DF8002801D0FFF7D4FFAFF30080CB
:102C30000020AFF30080FFF7B5FD00F002F801209F
:102C4000704700F001B800000746384600F002F86F
:102C5000FBE7000080B5AFF30080024A11001820A6
:102C6000ABBEFBE7260002000D0A53544D3332463B
:102C70003330335245206973206F6E6C696E652E58
:102C80000D0A00003031323334353637383941429D
:102C900043444546000000006E524632344C303109
:102CA0002B20636865636B3A200000000203040573
:102CB000060708090A0B0C0D0E0F1010000000008B
:102CC00000000000010203040607080901488047CC
:102CD00001480047FD2D0008052D000801010100F5
:102CE000100000000024F4000100000052435620B0
:102CF0005049504523000000205041594C4F414459
:102D00003A3E0000AFF30080AFF30080FFF788FF8A
:102D100000000000000000000000000000000000B3
:102D20006E524632340000001112131415160000C2
:102D30000A0B0C0D0E0F10004641494C0D0A000005
:102D40004F4B0D0A000000000000000001020304C8
:102D5000E71CE300FFF7FEBFFFF7FEBFFFF7FEBF74
:102D6000FFF7FEBFFFF7FEBFFFF7FEBFFFF7FEBF97
:102D7000FFF7FEBFFFF7FEBFFFF7FEBFFFF7FEBF87
:102D8000FFF7FEBFFFF7FEBFFFF7FEBFFFF7FEBF77
:102D9000FFF7FEBFFFF7FEBFFFF7FEBFFFF7FEBF67
:102DA000FFF7FEBFFFF7FEBFFFF7FEBFFFF7FEBF57
:102DB000FFF7FEBFFFF7FEBFFFF7FEBFFFF7FEBF47
:102DC000FFF7FEBFFFF7FEBFFFF7FEBFFFF7FEBF37
:102DD000FFF7FEBFFFF7FEBFFFF7FEBFFFF7FEBF27
:102DE000FFF7FEBFFFF7FEBFFFF7FEBFFFF7FEBF17
:0E2DF000FFF7FEBFFFF7FEBFFFF7FEBF704705
:0400000508002D05BD
:00000001FF
